{
    "_format": "hh-sol-artifact-1",
    "contractName": "PagoLink",
    "sourceName": "contracts/PagoLink.sol",
    "abi": [
        {
            "inputs": [
                {
                    "internalType": "address",
                    "name": "_stableCoinAddress",
                    "type": "address"
                },
                {
                    "internalType": "address",
                    "name": "_swapRouterAddress",
                    "type": "address"
                },
                {
                    "internalType": "uint256",
                    "name": "_slippage",
                    "type": "uint256"
                }
            ],
            "stateMutability": "nonpayable",
            "type": "constructor"
        },
        {
            "anonymous": false,
            "inputs": [
                {
                    "indexed": true,
                    "internalType": "address",
                    "name": "previousOwner",
                    "type": "address"
                },
                {
                    "indexed": true,
                    "internalType": "address",
                    "name": "newOwner",
                    "type": "address"
                }
            ],
            "name": "OwnershipTransferred",
            "type": "event"
        },
        {
            "anonymous": false,
            "inputs": [
                {
                    "indexed": true,
                    "internalType": "string",
                    "name": "paymentId",
                    "type": "string"
                },
                {
                    "indexed": true,
                    "internalType": "address",
                    "name": "payer",
                    "type": "address"
                },
                {
                    "indexed": true,
                    "internalType": "string",
                    "name": "merchant",
                    "type": "string"
                },
                {
                    "indexed": false,
                    "internalType": "uint256",
                    "name": "amount",
                    "type": "uint256"
                },
                {
                    "indexed": false,
                    "internalType": "address",
                    "name": "token",
                    "type": "address"
                }
            ],
            "name": "PaymentSuccessful",
            "type": "event"
        },
        {
            "anonymous": false,
            "inputs": [
                {
                    "indexed": false,
                    "internalType": "address",
                    "name": "proviousRouterAddress",
                    "type": "address"
                },
                {
                    "indexed": false,
                    "internalType": "address",
                    "name": "newRouterAddress",
                    "type": "address"
                }
            ],
            "name": "routerUpdated",
            "type": "event"
        },
        {
            "anonymous": false,
            "inputs": [
                {
                    "indexed": false,
                    "internalType": "uint256",
                    "name": "previousSlippageAddress",
                    "type": "uint256"
                },
                {
                    "indexed": false,
                    "internalType": "uint256",
                    "name": "newSlippageAddress",
                    "type": "uint256"
                }
            ],
            "name": "slippageUpdated",
            "type": "event"
        },
        {
            "anonymous": false,
            "inputs": [
                {
                    "indexed": false,
                    "internalType": "address",
                    "name": "proviousStableCoinAddress",
                    "type": "address"
                },
                {
                    "indexed": false,
                    "internalType": "address",
                    "name": "newStableCoinAddress",
                    "type": "address"
                }
            ],
            "name": "stableCoinUpdated",
            "type": "event"
        },
        {
            "inputs": [
                {
                    "internalType": "address",
                    "name": "_tokenAddress",
                    "type": "address"
                },
                {
                    "internalType": "uint256",
                    "name": "_amount",
                    "type": "uint256"
                },
                {
                    "internalType": "string",
                    "name": "_merchant",
                    "type": "string"
                },
                {
                    "internalType": "string",
                    "name": "_paymentId",
                    "type": "string"
                }
            ],
            "name": "makePayment",
            "outputs": [],
            "stateMutability": "payable",
            "type": "function"
        },
        {
            "inputs": [],
            "name": "owner",
            "outputs": [
                {
                    "internalType": "address",
                    "name": "",
                    "type": "address"
                }
            ],
            "stateMutability": "view",
            "type": "function"
        },
        {
            "inputs": [],
            "name": "renounceOwnership",
            "outputs": [],
            "stateMutability": "nonpayable",
            "type": "function"
        },
        {
            "inputs": [
                {
                    "internalType": "uint256",
                    "name": "_amountInUSD",
                    "type": "uint256"
                },
                {
                    "internalType": "address",
                    "name": "_token",
                    "type": "address"
                }
            ],
            "name": "requiredTokenAmount",
            "outputs": [
                {
                    "internalType": "uint256",
                    "name": "_tokenAmount",
                    "type": "uint256"
                }
            ],
            "stateMutability": "view",
            "type": "function"
        },
        {
            "inputs": [],
            "name": "slippage",
            "outputs": [
                {
                    "internalType": "uint256",
                    "name": "",
                    "type": "uint256"
                }
            ],
            "stateMutability": "view",
            "type": "function"
        },
        {
            "inputs": [],
            "name": "stableCoinAddress",
            "outputs": [
                {
                    "internalType": "address",
                    "name": "",
                    "type": "address"
                }
            ],
            "stateMutability": "view",
            "type": "function"
        },
        {
            "inputs": [],
            "name": "swapRouterAddress",
            "outputs": [
                {
                    "internalType": "address",
                    "name": "",
                    "type": "address"
                }
            ],
            "stateMutability": "view",
            "type": "function"
        },
        {
            "inputs": [
                {
                    "internalType": "address",
                    "name": "newOwner",
                    "type": "address"
                }
            ],
            "name": "transferOwnership",
            "outputs": [],
            "stateMutability": "nonpayable",
            "type": "function"
        },
        {
            "inputs": [
                {
                    "internalType": "address",
                    "name": "_routerAddress",
                    "type": "address"
                }
            ],
            "name": "updateRouter",
            "outputs": [],
            "stateMutability": "nonpayable",
            "type": "function"
        },
        {
            "inputs": [
                {
                    "internalType": "uint256",
                    "name": "_slippage",
                    "type": "uint256"
                }
            ],
            "name": "updateSlippage",
            "outputs": [],
            "stateMutability": "nonpayable",
            "type": "function"
        },
        {
            "inputs": [
                {
                    "internalType": "address",
                    "name": "_stableCoinAddress",
                    "type": "address"
                }
            ],
            "name": "updateStableCoin",
            "outputs": [],
            "stateMutability": "nonpayable",
            "type": "function"
        }
    ],
    "bytecode": "0x60806040523480156200001157600080fd5b50604051620021e2380380620021e283398181016040528101906200003791906200025a565b620000576200004b620000e960201b60201c565b620000f160201b60201c565b82600360006101000a81548173ffffffffffffffffffffffffffffffffffffffff021916908373ffffffffffffffffffffffffffffffffffffffff16021790555081600260006101000a81548173ffffffffffffffffffffffffffffffffffffffff021916908373ffffffffffffffffffffffffffffffffffffffff16021790555080600181905550505050620002b6565b600033905090565b60008060009054906101000a900473ffffffffffffffffffffffffffffffffffffffff169050816000806101000a81548173ffffffffffffffffffffffffffffffffffffffff021916908373ffffffffffffffffffffffffffffffffffffffff1602179055508173ffffffffffffffffffffffffffffffffffffffff168173ffffffffffffffffffffffffffffffffffffffff167f8be0079c531659141344cd1fd0a4f28419497f9722a3daafe3b4186f6b6457e060405160405180910390a35050565b600080fd5b600073ffffffffffffffffffffffffffffffffffffffff82169050919050565b6000620001e782620001ba565b9050919050565b620001f981620001da565b81146200020557600080fd5b50565b6000815190506200021981620001ee565b92915050565b6000819050919050565b62000234816200021f565b81146200024057600080fd5b50565b600081519050620002548162000229565b92915050565b600080600060608486031215620002765762000275620001b5565b5b6000620002868682870162000208565b9350506020620002998682870162000208565b9250506040620002ac8682870162000243565b9150509250925092565b611f1c80620002c66000396000f3fe60806040526004361061009c5760003560e01c80638da5cb5b116100645780638da5cb5b1461016557806390fcdb3614610190578063982aae46146101bb578063c851cc32146101e6578063e0baeb291461020f578063f2fde38b146102385761009c565b806315b0d496146100a15780633e032a3b146100ca5780636a83213c146100f5578063715018a61461011157806374bf47ed14610128575b600080fd5b3480156100ad57600080fd5b506100c860048036038101906100c391906111e8565b610261565b005b3480156100d657600080fd5b506100df6102b4565b6040516100ec9190611224565b60405180910390f35b61010f600480360381019061010a91906113e3565b6102ba565b005b34801561011d57600080fd5b5061012661085e565b005b34801561013457600080fd5b5061014f600480360381019061014a9190611482565b610872565b60405161015c9190611224565b60405180910390f35b34801561017157600080fd5b5061017a610a8e565b60405161018791906114d1565b60405180910390f35b34801561019c57600080fd5b506101a5610ab7565b6040516101b291906114d1565b60405180910390f35b3480156101c757600080fd5b506101d0610add565b6040516101dd91906114d1565b60405180910390f35b3480156101f257600080fd5b5061020d600480360381019061020891906114ec565b610b03565b005b34801561021b57600080fd5b50610236600480360381019061023191906114ec565b610bb0565b005b34801561024457600080fd5b5061025f600480360381019061025a91906114ec565b610c5d565b005b610269610ce0565b60006001549050816001819055507f65a432a61255064db30a15a13e88e8108f3fd5a3dcf38b0663a2c47c974011de81836040516102a8929190611519565b60405180910390a15050565b60015481565b6060600267ffffffffffffffff8111156102d7576102d66112b8565b5b6040519080825280602002602001820160405280156103055781602001602082028036833780820191505090505b509050848160008151811061031d5761031c611542565b5b602002602001019073ffffffffffffffffffffffffffffffffffffffff16908173ffffffffffffffffffffffffffffffffffffffff1681525050600360009054906101000a900473ffffffffffffffffffffffffffffffffffffffff168160018151811061038e5761038d611542565b5b602002602001019073ffffffffffffffffffffffffffffffffffffffff16908173ffffffffffffffffffffffffffffffffffffffff1681525050600080851161040c576040517f08c379a0000000000000000000000000000000000000000000000000000000008152600401610403906115ce565b60405180910390fd5b6022835114610450576040517f08c379a00000000000000000000000000000000000000000000000000000000081526004016104479061163a565b60405180910390fd5b600360009054906101000a900473ffffffffffffffffffffffffffffffffffffffff1673ffffffffffffffffffffffffffffffffffffffff168673ffffffffffffffffffffffffffffffffffffffff16141580156104db5750600073ffffffffffffffffffffffffffffffffffffffff168673ffffffffffffffffffffffffffffffffffffffff1614155b15610509576104ea8587610872565b90506104f886333084610d5e565b610503818684610e97565b506107da565b600360009054906101000a900473ffffffffffffffffffffffffffffffffffffffff1673ffffffffffffffffffffffffffffffffffffffff168673ffffffffffffffffffffffffffffffffffffffff160361056f5761056a86333088610d5e565b6107d9565b600260009054906101000a900473ffffffffffffffffffffffffffffffffffffffff1673ffffffffffffffffffffffffffffffffffffffff1663ad5c46486040518163ffffffff1660e01b8152600401602060405180830381865afa1580156105dc573d6000803e3d6000fd5b505050506040513d601f19601f82011682018060405250810190610600919061166f565b8260008151811061061457610613611542565b5b602002602001019073ffffffffffffffffffffffffffffffffffffffff16908173ffffffffffffffffffffffffffffffffffffffff16815250506106e885600260009054906101000a900473ffffffffffffffffffffffffffffffffffffffff1673ffffffffffffffffffffffffffffffffffffffff1663ad5c46486040518163ffffffff1660e01b8152600401602060405180830381865afa1580156106bf573d6000803e3d6000fd5b505050506040513d601f19601f820116820180604052508101906106e3919061166f565b610872565b90508034101561072d576040517f08c379a0000000000000000000000000000000000000000000000000000000008152600401610724906116e8565b60405180910390fd5b600260009054906101000a900473ffffffffffffffffffffffffffffffffffffffff1673ffffffffffffffffffffffffffffffffffffffff1663fb3bdb4182878530426040518663ffffffff1660e01b815260040161078f94939291906117c6565b60006040518083038185885af11580156107ad573d6000803e3d6000fd5b50505050506040513d6000823e3d601f19601f820116820180604052508101906107d791906118ef565b505b5b836040516107e891906119a9565b60405180910390203373ffffffffffffffffffffffffffffffffffffffff168460405161081591906119a9565b60405180910390207fac158fcb7e37f52012770306e422a34ff4324db9fd7447310395dcc7662b9208888a60405161084e9291906119c0565b60405180910390a4505050505050565b610866610ce0565b6108706000610f9c565b565b60006060600267ffffffffffffffff811115610891576108906112b8565b5b6040519080825280602002602001820160405280156108bf5781602001602082028036833780820191505090505b50905082816000815181106108d7576108d6611542565b5b602002602001019073ffffffffffffffffffffffffffffffffffffffff16908173ffffffffffffffffffffffffffffffffffffffff1681525050600360009054906101000a900473ffffffffffffffffffffffffffffffffffffffff168160018151811061094857610947611542565b5b602002602001019073ffffffffffffffffffffffffffffffffffffffff16908173ffffffffffffffffffffffffffffffffffffffff16815250506000600260009054906101000a900473ffffffffffffffffffffffffffffffffffffffff1673ffffffffffffffffffffffffffffffffffffffff16631f00ca7486846040518363ffffffff1660e01b81526004016109e19291906119e9565b600060405180830381865afa1580156109fe573d6000803e3d6000fd5b505050506040513d6000823e3d601f19601f82011682018060405250810190610a2791906118ef565b9050606460015482600081518110610a4257610a41611542565b5b6020026020010151610a549190611a48565b610a5e9190611ab9565b81600081518110610a7257610a71611542565b5b6020026020010151610a849190611aea565b9250505092915050565b60008060009054906101000a900473ffffffffffffffffffffffffffffffffffffffff16905090565b600260009054906101000a900473ffffffffffffffffffffffffffffffffffffffff1681565b600360009054906101000a900473ffffffffffffffffffffffffffffffffffffffff1681565b610b0b610ce0565b6000600260009054906101000a900473ffffffffffffffffffffffffffffffffffffffff16905081600260006101000a81548173ffffffffffffffffffffffffffffffffffffffff021916908373ffffffffffffffffffffffffffffffffffffffff1602179055507fc39066a0834df96b3282322903ba6662d4c35a464fbfb1cb2f5aa97226a97db48183604051610ba4929190611b1e565b60405180910390a15050565b610bb8610ce0565b6000600360009054906101000a900473ffffffffffffffffffffffffffffffffffffffff16905081600360006101000a81548173ffffffffffffffffffffffffffffffffffffffff021916908373ffffffffffffffffffffffffffffffffffffffff1602179055507fbbc43c225c49cd825b755826abb6ef4940c342bc15f8d7fd9d0fb4e2b363ba538183604051610c51929190611b1e565b60405180910390a15050565b610c65610ce0565b600073ffffffffffffffffffffffffffffffffffffffff168173ffffffffffffffffffffffffffffffffffffffff1603610cd4576040517f08c379a0000000000000000000000000000000000000000000000000000000008152600401610ccb90611bb9565b60405180910390fd5b610cdd81610f9c565b50565b610ce8611060565b73ffffffffffffffffffffffffffffffffffffffff16610d06610a8e565b73ffffffffffffffffffffffffffffffffffffffff1614610d5c576040517f08c379a0000000000000000000000000000000000000000000000000000000008152600401610d5390611c25565b60405180910390fd5b565b6000808573ffffffffffffffffffffffffffffffffffffffff166323b872dd868686604051602401610d9293929190611c45565b6040516020818303038152906040529060e01b6020820180517bffffffffffffffffffffffffffffffffffffffffffffffffffffffff8381831617835250505050604051610de09190611cc3565b6000604051808303816000865af19150503d8060008114610e1d576040519150601f19603f3d011682016040523d82523d6000602084013e610e22565b606091505b5091509150818015610e505750600081511480610e4f575080806020019051810190610e4e9190611d12565b5b5b610e8f576040517f08c379a0000000000000000000000000000000000000000000000000000000008152600401610e8690611db1565b60405180910390fd5b505050505050565b6060610ee182600081518110610eb057610eaf611542565b5b6020026020010151600260009054906101000a900473ffffffffffffffffffffffffffffffffffffffff1686611068565b600260009054906101000a900473ffffffffffffffffffffffffffffffffffffffff1673ffffffffffffffffffffffffffffffffffffffff16638803dbee848685610f2a610a8e565b426040518663ffffffff1660e01b8152600401610f4b959493929190611dd1565b6000604051808303816000875af1158015610f6a573d6000803e3d6000fd5b505050506040513d6000823e3d601f19601f82011682018060405250810190610f9391906118ef565b90509392505050565b60008060009054906101000a900473ffffffffffffffffffffffffffffffffffffffff169050816000806101000a81548173ffffffffffffffffffffffffffffffffffffffff021916908373ffffffffffffffffffffffffffffffffffffffff1602179055508173ffffffffffffffffffffffffffffffffffffffff168173ffffffffffffffffffffffffffffffffffffffff167f8be0079c531659141344cd1fd0a4f28419497f9722a3daafe3b4186f6b6457e060405160405180910390a35050565b600033905090565b6000808473ffffffffffffffffffffffffffffffffffffffff1663095ea7b3858560405160240161109a929190611e2b565b6040516020818303038152906040529060e01b6020820180517bffffffffffffffffffffffffffffffffffffffffffffffffffffffff83818316178352505050506040516110e89190611cc3565b6000604051808303816000865af19150503d8060008114611125576040519150601f19603f3d011682016040523d82523d6000602084013e61112a565b606091505b509150915081801561115857506000815114806111575750808060200190518101906111569190611d12565b5b5b611197576040517f08c379a000000000000000000000000000000000000000000000000000000000815260040161118e90611ec6565b60405180910390fd5b5050505050565b6000604051905090565b600080fd5b600080fd5b6000819050919050565b6111c5816111b2565b81146111d057600080fd5b50565b6000813590506111e2816111bc565b92915050565b6000602082840312156111fe576111fd6111a8565b5b600061120c848285016111d3565b91505092915050565b61121e816111b2565b82525050565b60006020820190506112396000830184611215565b92915050565b600073ffffffffffffffffffffffffffffffffffffffff82169050919050565b600061126a8261123f565b9050919050565b61127a8161125f565b811461128557600080fd5b50565b60008135905061129781611271565b92915050565b600080fd5b600080fd5b6000601f19601f8301169050919050565b7f4e487b7100000000000000000000000000000000000000000000000000000000600052604160045260246000fd5b6112f0826112a7565b810181811067ffffffffffffffff8211171561130f5761130e6112b8565b5b80604052505050565b600061132261119e565b905061132e82826112e7565b919050565b600067ffffffffffffffff82111561134e5761134d6112b8565b5b611357826112a7565b9050602081019050919050565b82818337600083830152505050565b600061138661138184611333565b611318565b9050828152602081018484840111156113a2576113a16112a2565b5b6113ad848285611364565b509392505050565b600082601f8301126113ca576113c961129d565b5b81356113da848260208601611373565b91505092915050565b600080600080608085870312156113fd576113fc6111a8565b5b600061140b87828801611288565b945050602061141c878288016111d3565b935050604085013567ffffffffffffffff81111561143d5761143c6111ad565b5b611449878288016113b5565b925050606085013567ffffffffffffffff81111561146a576114696111ad565b5b611476878288016113b5565b91505092959194509250565b60008060408385031215611499576114986111a8565b5b60006114a7858286016111d3565b92505060206114b885828601611288565b9150509250929050565b6114cb8161125f565b82525050565b60006020820190506114e660008301846114c2565b92915050565b600060208284031215611502576115016111a8565b5b600061151084828501611288565b91505092915050565b600060408201905061152e6000830185611215565b61153b6020830184611215565b9392505050565b7f4e487b7100000000000000000000000000000000000000000000000000000000600052603260045260246000fd5b600082825260208201905092915050565b7f496e76616c6964207061796d656e7420616d6f756e7400000000000000000000600082015250565b60006115b8601683611571565b91506115c382611582565b602082019050919050565b600060208201905081810360008301526115e7816115ab565b9050919050565b7f496e76616c6964207061796d656e742069640000000000000000000000000000600082015250565b6000611624601283611571565b915061162f826115ee565b602082019050919050565b6000602082019050818103600083015261165381611617565b9050919050565b60008151905061166981611271565b92915050565b600060208284031215611685576116846111a8565b5b60006116938482850161165a565b91505092915050565b7f496e73756666696369656e7420616d6f756e7421000000000000000000000000600082015250565b60006116d2601483611571565b91506116dd8261169c565b602082019050919050565b60006020820190508181036000830152611701816116c5565b9050919050565b600081519050919050565b600082825260208201905092915050565b6000819050602082019050919050565b61173d8161125f565b82525050565b600061174f8383611734565b60208301905092915050565b6000602082019050919050565b600061177382611708565b61177d8185611713565b935061178883611724565b8060005b838110156117b95781516117a08882611743565b97506117ab8361175b565b92505060018101905061178c565b5085935050505092915050565b60006080820190506117db6000830187611215565b81810360208301526117ed8186611768565b90506117fc60408301856114c2565b6118096060830184611215565b95945050505050565b600067ffffffffffffffff82111561182d5761182c6112b8565b5b602082029050602081019050919050565b600080fd5b600081519050611852816111bc565b92915050565b600061186b61186684611812565b611318565b9050808382526020820190506020840283018581111561188e5761188d61183e565b5b835b818110156118b757806118a38882611843565b845260208401935050602081019050611890565b5050509392505050565b600082601f8301126118d6576118d561129d565b5b81516118e6848260208601611858565b91505092915050565b600060208284031215611905576119046111a8565b5b600082015167ffffffffffffffff811115611923576119226111ad565b5b61192f848285016118c1565b91505092915050565b600081519050919050565b600081905092915050565b60005b8381101561196c578082015181840152602081019050611951565b60008484015250505050565b600061198382611938565b61198d8185611943565b935061199d81856020860161194e565b80840191505092915050565b60006119b58284611978565b915081905092915050565b60006040820190506119d56000830185611215565b6119e260208301846114c2565b9392505050565b60006040820190506119fe6000830185611215565b8181036020830152611a108184611768565b90509392505050565b7f4e487b7100000000000000000000000000000000000000000000000000000000600052601160045260246000fd5b6000611a53826111b2565b9150611a5e836111b2565b9250828202611a6c816111b2565b91508282048414831517611a8357611a82611a19565b5b5092915050565b7f4e487b7100000000000000000000000000000000000000000000000000000000600052601260045260246000fd5b6000611ac4826111b2565b9150611acf836111b2565b925082611adf57611ade611a8a565b5b828204905092915050565b6000611af5826111b2565b9150611b00836111b2565b9250828201905080821115611b1857611b17611a19565b5b92915050565b6000604082019050611b3360008301856114c2565b611b4060208301846114c2565b9392505050565b7f4f776e61626c653a206e6577206f776e657220697320746865207a65726f206160008201527f6464726573730000000000000000000000000000000000000000000000000000602082015250565b6000611ba3602683611571565b9150611bae82611b47565b604082019050919050565b60006020820190508181036000830152611bd281611b96565b9050919050565b7f4f776e61626c653a2063616c6c6572206973206e6f7420746865206f776e6572600082015250565b6000611c0f602083611571565b9150611c1a82611bd9565b602082019050919050565b60006020820190508181036000830152611c3e81611c02565b9050919050565b6000606082019050611c5a60008301866114c2565b611c6760208301856114c2565b611c746040830184611215565b949350505050565b600081519050919050565b600081905092915050565b6000611c9d82611c7c565b611ca78185611c87565b9350611cb781856020860161194e565b80840191505092915050565b6000611ccf8284611c92565b915081905092915050565b60008115159050919050565b611cef81611cda565b8114611cfa57600080fd5b50565b600081519050611d0c81611ce6565b92915050565b600060208284031215611d2857611d276111a8565b5b6000611d3684828501611cfd565b91505092915050565b7f5472616e7366657248656c7065723a3a7472616e7366657246726f6d3a20747260008201527f616e7366657246726f6d206661696c6564000000000000000000000000000000602082015250565b6000611d9b603183611571565b9150611da682611d3f565b604082019050919050565b60006020820190508181036000830152611dca81611d8e565b9050919050565b600060a082019050611de66000830188611215565b611df36020830187611215565b8181036040830152611e058186611768565b9050611e1460608301856114c2565b611e216080830184611215565b9695505050505050565b6000604082019050611e4060008301856114c2565b611e4d6020830184611215565b9392505050565b7f5472616e7366657248656c7065723a3a73616665417070726f76653a2061707060008201527f726f7665206661696c6564000000000000000000000000000000000000000000602082015250565b6000611eb0602b83611571565b9150611ebb82611e54565b604082019050919050565b60006020820190508181036000830152611edf81611ea3565b905091905056fea264697066735822122081fe9d8875ce46e7513b043e7f87fbd97383b19d9fb48346e21c5dc1995fa3a664736f6c63430008120033",
    "linkReferences": {},
    "deployedLinkReferences": {}
}