{
  "_format": "hh-sol-artifact-1",
  "contractName": "PagoLink",
  "sourceName": "contracts/PagoLink.sol",
  "abi": [
    {
      "inputs": [
        {
          "internalType": "address",
          "name": "_stableCoinAddress",
          "type": "address"
        },
        {
          "internalType": "address",
          "name": "_swapRouterAddress",
          "type": "address"
        },
        {
          "internalType": "uint256",
          "name": "_slippage",
          "type": "uint256"
        }
      ],
      "stateMutability": "nonpayable",
      "type": "constructor"
    },
    {
      "anonymous": false,
      "inputs": [
        {
          "indexed": true,
          "internalType": "address",
          "name": "previousOwner",
          "type": "address"
        },
        {
          "indexed": true,
          "internalType": "address",
          "name": "newOwner",
          "type": "address"
        }
      ],
      "name": "OwnershipTransferred",
      "type": "event"
    },
    {
      "anonymous": false,
      "inputs": [
        {
          "indexed": false,
          "internalType": "string",
          "name": "paymentId",
          "type": "string"
        },
        {
          "indexed": false,
          "internalType": "address",
          "name": "payer",
          "type": "address"
        },
        {
          "indexed": false,
          "internalType": "string",
          "name": "merchant",
          "type": "string"
        },
        {
          "indexed": false,
          "internalType": "uint256",
          "name": "amount",
          "type": "uint256"
        },
        {
          "indexed": false,
          "internalType": "address",
          "name": "token",
          "type": "address"
        }
      ],
      "name": "PaymentSuccessful",
      "type": "event"
    },
    {
      "anonymous": false,
      "inputs": [
        {
          "indexed": false,
          "internalType": "address",
          "name": "proviousRouterAddress",
          "type": "address"
        },
        {
          "indexed": false,
          "internalType": "address",
          "name": "newRouterAddress",
          "type": "address"
        }
      ],
      "name": "routerUpdated",
      "type": "event"
    },
    {
      "anonymous": false,
      "inputs": [
        {
          "indexed": false,
          "internalType": "uint256",
          "name": "previousSlippageAddress",
          "type": "uint256"
        },
        {
          "indexed": false,
          "internalType": "uint256",
          "name": "newSlippageAddress",
          "type": "uint256"
        }
      ],
      "name": "slippageUpdated",
      "type": "event"
    },
    {
      "anonymous": false,
      "inputs": [
        {
          "indexed": false,
          "internalType": "address",
          "name": "proviousStableCoinAddress",
          "type": "address"
        },
        {
          "indexed": false,
          "internalType": "address",
          "name": "newStableCoinAddress",
          "type": "address"
        }
      ],
      "name": "stableCoinUpdated",
      "type": "event"
    },
    {
      "inputs": [
        {
          "internalType": "address",
          "name": "_tokenAddress",
          "type": "address"
        },
        {
          "internalType": "uint256",
          "name": "_amount",
          "type": "uint256"
        },
        {
          "internalType": "string",
          "name": "_merchant",
          "type": "string"
        },
        {
          "internalType": "string",
          "name": "_paymentId",
          "type": "string"
        }
      ],
      "name": "makePayment",
      "outputs": [],
      "stateMutability": "payable",
      "type": "function"
    },
    {
      "inputs": [],
      "name": "owner",
      "outputs": [
        {
          "internalType": "address",
          "name": "",
          "type": "address"
        }
      ],
      "stateMutability": "view",
      "type": "function"
    },
    {
      "inputs": [],
      "name": "renounceOwnership",
      "outputs": [],
      "stateMutability": "nonpayable",
      "type": "function"
    },
    {
      "inputs": [
        {
          "internalType": "uint256",
          "name": "_amountInUSD",
          "type": "uint256"
        },
        {
          "internalType": "address",
          "name": "_token",
          "type": "address"
        }
      ],
      "name": "requiredTokenAmount",
      "outputs": [
        {
          "internalType": "uint256",
          "name": "_tokenAmount",
          "type": "uint256"
        }
      ],
      "stateMutability": "view",
      "type": "function"
    },
    {
      "inputs": [],
      "name": "slippage",
      "outputs": [
        {
          "internalType": "uint256",
          "name": "",
          "type": "uint256"
        }
      ],
      "stateMutability": "view",
      "type": "function"
    },
    {
      "inputs": [],
      "name": "stableCoinAddress",
      "outputs": [
        {
          "internalType": "address",
          "name": "",
          "type": "address"
        }
      ],
      "stateMutability": "view",
      "type": "function"
    },
    {
      "inputs": [],
      "name": "swapRouterAddress",
      "outputs": [
        {
          "internalType": "address",
          "name": "",
          "type": "address"
        }
      ],
      "stateMutability": "view",
      "type": "function"
    },
    {
      "inputs": [
        {
          "internalType": "address",
          "name": "newOwner",
          "type": "address"
        }
      ],
      "name": "transferOwnership",
      "outputs": [],
      "stateMutability": "nonpayable",
      "type": "function"
    },
    {
      "inputs": [
        {
          "internalType": "address",
          "name": "_routerAddress",
          "type": "address"
        }
      ],
      "name": "updateRouter",
      "outputs": [],
      "stateMutability": "nonpayable",
      "type": "function"
    },
    {
      "inputs": [
        {
          "internalType": "uint256",
          "name": "_slippage",
          "type": "uint256"
        }
      ],
      "name": "updateSlippage",
      "outputs": [],
      "stateMutability": "nonpayable",
      "type": "function"
    },
    {
      "inputs": [
        {
          "internalType": "address",
          "name": "_stableCoinAddress",
          "type": "address"
        }
      ],
      "name": "updateStableCoin",
      "outputs": [],
      "stateMutability": "nonpayable",
      "type": "function"
    }
  ],
  "bytecode": "0x60806040523480156200001157600080fd5b50604051620021133803806200211383398181016040528101906200003791906200025a565b620000576200004b620000e960201b60201c565b620000f160201b60201c565b82600360006101000a81548173ffffffffffffffffffffffffffffffffffffffff021916908373ffffffffffffffffffffffffffffffffffffffff16021790555081600260006101000a81548173ffffffffffffffffffffffffffffffffffffffff021916908373ffffffffffffffffffffffffffffffffffffffff16021790555080600181905550505050620002b6565b600033905090565b60008060009054906101000a900473ffffffffffffffffffffffffffffffffffffffff169050816000806101000a81548173ffffffffffffffffffffffffffffffffffffffff021916908373ffffffffffffffffffffffffffffffffffffffff1602179055508173ffffffffffffffffffffffffffffffffffffffff168173ffffffffffffffffffffffffffffffffffffffff167f8be0079c531659141344cd1fd0a4f28419497f9722a3daafe3b4186f6b6457e060405160405180910390a35050565b600080fd5b600073ffffffffffffffffffffffffffffffffffffffff82169050919050565b6000620001e782620001ba565b9050919050565b620001f981620001da565b81146200020557600080fd5b50565b6000815190506200021981620001ee565b92915050565b6000819050919050565b62000234816200021f565b81146200024057600080fd5b50565b600081519050620002548162000229565b92915050565b600080600060608486031215620002765762000275620001b5565b5b6000620002868682870162000208565b9350506020620002998682870162000208565b9250506040620002ac8682870162000243565b9150509250925092565b611e4d80620002c66000396000f3fe60806040526004361061009c5760003560e01c80638da5cb5b116100645780638da5cb5b1461016557806390fcdb3614610190578063982aae46146101bb578063c851cc32146101e6578063e0baeb291461020f578063f2fde38b146102385761009c565b806315b0d496146100a15780633e032a3b146100ca5780636a83213c146100f5578063715018a61461011157806374bf47ed14610128575b600080fd5b3480156100ad57600080fd5b506100c860048036038101906100c39190611167565b610261565b005b3480156100d657600080fd5b506100df6102b4565b6040516100ec91906111a3565b60405180910390f35b61010f600480360381019061010a9190611362565b6102ba565b005b34801561011d57600080fd5b506101266107dd565b005b34801561013457600080fd5b5061014f600480360381019061014a9190611401565b6107f1565b60405161015c91906111a3565b60405180910390f35b34801561017157600080fd5b5061017a610a0d565b6040516101879190611450565b60405180910390f35b34801561019c57600080fd5b506101a5610a36565b6040516101b29190611450565b60405180910390f35b3480156101c757600080fd5b506101d0610a5c565b6040516101dd9190611450565b60405180910390f35b3480156101f257600080fd5b5061020d6004803603810190610208919061146b565b610a82565b005b34801561021b57600080fd5b506102366004803603810190610231919061146b565b610b2f565b005b34801561024457600080fd5b5061025f600480360381019061025a919061146b565b610bdc565b005b610269610c5f565b60006001549050816001819055507f65a432a61255064db30a15a13e88e8108f3fd5a3dcf38b0663a2c47c974011de81836040516102a8929190611498565b60405180910390a15050565b60015481565b6060600267ffffffffffffffff8111156102d7576102d6611237565b5b6040519080825280602002602001820160405280156103055781602001602082028036833780820191505090505b509050848160008151811061031d5761031c6114c1565b5b602002602001019073ffffffffffffffffffffffffffffffffffffffff16908173ffffffffffffffffffffffffffffffffffffffff1681525050600360009054906101000a900473ffffffffffffffffffffffffffffffffffffffff168160018151811061038e5761038d6114c1565b5b602002602001019073ffffffffffffffffffffffffffffffffffffffff16908173ffffffffffffffffffffffffffffffffffffffff1681525050600080851161040c576040517f08c379a00000000000000000000000000000000000000000000000000000000081526004016104039061154d565b60405180910390fd5b600360009054906101000a900473ffffffffffffffffffffffffffffffffffffffff1673ffffffffffffffffffffffffffffffffffffffff168673ffffffffffffffffffffffffffffffffffffffff16141580156104975750600073ffffffffffffffffffffffffffffffffffffffff168673ffffffffffffffffffffffffffffffffffffffff1614155b156104c5576104a685876107f1565b90506104b486333084610cdd565b6104bf818684610e16565b50610796565b600360009054906101000a900473ffffffffffffffffffffffffffffffffffffffff1673ffffffffffffffffffffffffffffffffffffffff168673ffffffffffffffffffffffffffffffffffffffff160361052b5761052686333088610cdd565b610795565b600260009054906101000a900473ffffffffffffffffffffffffffffffffffffffff1673ffffffffffffffffffffffffffffffffffffffff1663ad5c46486040518163ffffffff1660e01b8152600401602060405180830381865afa158015610598573d6000803e3d6000fd5b505050506040513d601f19601f820116820180604052508101906105bc9190611582565b826000815181106105d0576105cf6114c1565b5b602002602001019073ffffffffffffffffffffffffffffffffffffffff16908173ffffffffffffffffffffffffffffffffffffffff16815250506106a485600260009054906101000a900473ffffffffffffffffffffffffffffffffffffffff1673ffffffffffffffffffffffffffffffffffffffff1663ad5c46486040518163ffffffff1660e01b8152600401602060405180830381865afa15801561067b573d6000803e3d6000fd5b505050506040513d601f19601f8201168201806040525081019061069f9190611582565b6107f1565b9050803410156106e9576040517f08c379a00000000000000000000000000000000000000000000000000000000081526004016106e0906115fb565b60405180910390fd5b600260009054906101000a900473ffffffffffffffffffffffffffffffffffffffff1673ffffffffffffffffffffffffffffffffffffffff1663fb3bdb4182878530426040518663ffffffff1660e01b815260040161074b94939291906116d9565b60006040518083038185885af1158015610769573d6000803e3d6000fd5b50505050506040513d6000823e3d601f19601f820116820180604052508101906107939190611802565b505b5b7fac158fcb7e37f52012770306e422a34ff4324db9fd7447310395dcc7662b9208833386888a6040516107cd9594939291906118b9565b60405180910390a1505050505050565b6107e5610c5f565b6107ef6000610f1b565b565b60006060600267ffffffffffffffff8111156108105761080f611237565b5b60405190808252806020026020018201604052801561083e5781602001602082028036833780820191505090505b5090508281600081518110610856576108556114c1565b5b602002602001019073ffffffffffffffffffffffffffffffffffffffff16908173ffffffffffffffffffffffffffffffffffffffff1681525050600360009054906101000a900473ffffffffffffffffffffffffffffffffffffffff16816001815181106108c7576108c66114c1565b5b602002602001019073ffffffffffffffffffffffffffffffffffffffff16908173ffffffffffffffffffffffffffffffffffffffff16815250506000600260009054906101000a900473ffffffffffffffffffffffffffffffffffffffff1673ffffffffffffffffffffffffffffffffffffffff16631f00ca7486846040518363ffffffff1660e01b815260040161096092919061191a565b600060405180830381865afa15801561097d573d6000803e3d6000fd5b505050506040513d6000823e3d601f19601f820116820180604052508101906109a69190611802565b90506064600154826000815181106109c1576109c06114c1565b5b60200260200101516109d39190611979565b6109dd91906119ea565b816000815181106109f1576109f06114c1565b5b6020026020010151610a039190611a1b565b9250505092915050565b60008060009054906101000a900473ffffffffffffffffffffffffffffffffffffffff16905090565b600260009054906101000a900473ffffffffffffffffffffffffffffffffffffffff1681565b600360009054906101000a900473ffffffffffffffffffffffffffffffffffffffff1681565b610a8a610c5f565b6000600260009054906101000a900473ffffffffffffffffffffffffffffffffffffffff16905081600260006101000a81548173ffffffffffffffffffffffffffffffffffffffff021916908373ffffffffffffffffffffffffffffffffffffffff1602179055507fc39066a0834df96b3282322903ba6662d4c35a464fbfb1cb2f5aa97226a97db48183604051610b23929190611a4f565b60405180910390a15050565b610b37610c5f565b6000600360009054906101000a900473ffffffffffffffffffffffffffffffffffffffff16905081600360006101000a81548173ffffffffffffffffffffffffffffffffffffffff021916908373ffffffffffffffffffffffffffffffffffffffff1602179055507fbbc43c225c49cd825b755826abb6ef4940c342bc15f8d7fd9d0fb4e2b363ba538183604051610bd0929190611a4f565b60405180910390a15050565b610be4610c5f565b600073ffffffffffffffffffffffffffffffffffffffff168173ffffffffffffffffffffffffffffffffffffffff1603610c53576040517f08c379a0000000000000000000000000000000000000000000000000000000008152600401610c4a90611aea565b60405180910390fd5b610c5c81610f1b565b50565b610c67610fdf565b73ffffffffffffffffffffffffffffffffffffffff16610c85610a0d565b73ffffffffffffffffffffffffffffffffffffffff1614610cdb576040517f08c379a0000000000000000000000000000000000000000000000000000000008152600401610cd290611b56565b60405180910390fd5b565b6000808573ffffffffffffffffffffffffffffffffffffffff166323b872dd868686604051602401610d1193929190611b76565b6040516020818303038152906040529060e01b6020820180517bffffffffffffffffffffffffffffffffffffffffffffffffffffffff8381831617835250505050604051610d5f9190611bf4565b6000604051808303816000865af19150503d8060008114610d9c576040519150601f19603f3d011682016040523d82523d6000602084013e610da1565b606091505b5091509150818015610dcf5750600081511480610dce575080806020019051810190610dcd9190611c43565b5b5b610e0e576040517f08c379a0000000000000000000000000000000000000000000000000000000008152600401610e0590611ce2565b60405180910390fd5b505050505050565b6060610e6082600081518110610e2f57610e2e6114c1565b5b6020026020010151600260009054906101000a900473ffffffffffffffffffffffffffffffffffffffff1686610fe7565b600260009054906101000a900473ffffffffffffffffffffffffffffffffffffffff1673ffffffffffffffffffffffffffffffffffffffff16638803dbee848685610ea9610a0d565b426040518663ffffffff1660e01b8152600401610eca959493929190611d02565b6000604051808303816000875af1158015610ee9573d6000803e3d6000fd5b505050506040513d6000823e3d601f19601f82011682018060405250810190610f129190611802565b90509392505050565b60008060009054906101000a900473ffffffffffffffffffffffffffffffffffffffff169050816000806101000a81548173ffffffffffffffffffffffffffffffffffffffff021916908373ffffffffffffffffffffffffffffffffffffffff1602179055508173ffffffffffffffffffffffffffffffffffffffff168173ffffffffffffffffffffffffffffffffffffffff167f8be0079c531659141344cd1fd0a4f28419497f9722a3daafe3b4186f6b6457e060405160405180910390a35050565b600033905090565b6000808473ffffffffffffffffffffffffffffffffffffffff1663095ea7b38585604051602401611019929190611d5c565b6040516020818303038152906040529060e01b6020820180517bffffffffffffffffffffffffffffffffffffffffffffffffffffffff83818316178352505050506040516110679190611bf4565b6000604051808303816000865af19150503d80600081146110a4576040519150601f19603f3d011682016040523d82523d6000602084013e6110a9565b606091505b50915091508180156110d757506000815114806110d65750808060200190518101906110d59190611c43565b5b5b611116576040517f08c379a000000000000000000000000000000000000000000000000000000000815260040161110d90611df7565b60405180910390fd5b5050505050565b6000604051905090565b600080fd5b600080fd5b6000819050919050565b61114481611131565b811461114f57600080fd5b50565b6000813590506111618161113b565b92915050565b60006020828403121561117d5761117c611127565b5b600061118b84828501611152565b91505092915050565b61119d81611131565b82525050565b60006020820190506111b86000830184611194565b92915050565b600073ffffffffffffffffffffffffffffffffffffffff82169050919050565b60006111e9826111be565b9050919050565b6111f9816111de565b811461120457600080fd5b50565b600081359050611216816111f0565b92915050565b600080fd5b600080fd5b6000601f19601f8301169050919050565b7f4e487b7100000000000000000000000000000000000000000000000000000000600052604160045260246000fd5b61126f82611226565b810181811067ffffffffffffffff8211171561128e5761128d611237565b5b80604052505050565b60006112a161111d565b90506112ad8282611266565b919050565b600067ffffffffffffffff8211156112cd576112cc611237565b5b6112d682611226565b9050602081019050919050565b82818337600083830152505050565b6000611305611300846112b2565b611297565b90508281526020810184848401111561132157611320611221565b5b61132c8482856112e3565b509392505050565b600082601f8301126113495761134861121c565b5b81356113598482602086016112f2565b91505092915050565b6000806000806080858703121561137c5761137b611127565b5b600061138a87828801611207565b945050602061139b87828801611152565b935050604085013567ffffffffffffffff8111156113bc576113bb61112c565b5b6113c887828801611334565b925050606085013567ffffffffffffffff8111156113e9576113e861112c565b5b6113f587828801611334565b91505092959194509250565b6000806040838503121561141857611417611127565b5b600061142685828601611152565b925050602061143785828601611207565b9150509250929050565b61144a816111de565b82525050565b60006020820190506114656000830184611441565b92915050565b60006020828403121561148157611480611127565b5b600061148f84828501611207565b91505092915050565b60006040820190506114ad6000830185611194565b6114ba6020830184611194565b9392505050565b7f4e487b7100000000000000000000000000000000000000000000000000000000600052603260045260246000fd5b600082825260208201905092915050565b7f496e76616c6964207061796d656e7420616d6f756e7400000000000000000000600082015250565b60006115376016836114f0565b915061154282611501565b602082019050919050565b600060208201905081810360008301526115668161152a565b9050919050565b60008151905061157c816111f0565b92915050565b60006020828403121561159857611597611127565b5b60006115a68482850161156d565b91505092915050565b7f496e73756666696369656e7420616d6f756e7421000000000000000000000000600082015250565b60006115e56014836114f0565b91506115f0826115af565b602082019050919050565b60006020820190508181036000830152611614816115d8565b9050919050565b600081519050919050565b600082825260208201905092915050565b6000819050602082019050919050565b611650816111de565b82525050565b60006116628383611647565b60208301905092915050565b6000602082019050919050565b60006116868261161b565b6116908185611626565b935061169b83611637565b8060005b838110156116cc5781516116b38882611656565b97506116be8361166e565b92505060018101905061169f565b5085935050505092915050565b60006080820190506116ee6000830187611194565b8181036020830152611700818661167b565b905061170f6040830185611441565b61171c6060830184611194565b95945050505050565b600067ffffffffffffffff8211156117405761173f611237565b5b602082029050602081019050919050565b600080fd5b6000815190506117658161113b565b92915050565b600061177e61177984611725565b611297565b905080838252602082019050602084028301858111156117a1576117a0611751565b5b835b818110156117ca57806117b68882611756565b8452602084019350506020810190506117a3565b5050509392505050565b600082601f8301126117e9576117e861121c565b5b81516117f984826020860161176b565b91505092915050565b60006020828403121561181857611817611127565b5b600082015167ffffffffffffffff8111156118365761183561112c565b5b611842848285016117d4565b91505092915050565b600081519050919050565b60005b83811015611874578082015181840152602081019050611859565b60008484015250505050565b600061188b8261184b565b61189581856114f0565b93506118a5818560208601611856565b6118ae81611226565b840191505092915050565b600060a08201905081810360008301526118d38188611880565b90506118e26020830187611441565b81810360408301526118f48186611880565b90506119036060830185611194565b6119106080830184611441565b9695505050505050565b600060408201905061192f6000830185611194565b8181036020830152611941818461167b565b90509392505050565b7f4e487b7100000000000000000000000000000000000000000000000000000000600052601160045260246000fd5b600061198482611131565b915061198f83611131565b925082820261199d81611131565b915082820484148315176119b4576119b361194a565b5b5092915050565b7f4e487b7100000000000000000000000000000000000000000000000000000000600052601260045260246000fd5b60006119f582611131565b9150611a0083611131565b925082611a1057611a0f6119bb565b5b828204905092915050565b6000611a2682611131565b9150611a3183611131565b9250828201905080821115611a4957611a4861194a565b5b92915050565b6000604082019050611a646000830185611441565b611a716020830184611441565b9392505050565b7f4f776e61626c653a206e6577206f776e657220697320746865207a65726f206160008201527f6464726573730000000000000000000000000000000000000000000000000000602082015250565b6000611ad46026836114f0565b9150611adf82611a78565b604082019050919050565b60006020820190508181036000830152611b0381611ac7565b9050919050565b7f4f776e61626c653a2063616c6c6572206973206e6f7420746865206f776e6572600082015250565b6000611b406020836114f0565b9150611b4b82611b0a565b602082019050919050565b60006020820190508181036000830152611b6f81611b33565b9050919050565b6000606082019050611b8b6000830186611441565b611b986020830185611441565b611ba56040830184611194565b949350505050565b600081519050919050565b600081905092915050565b6000611bce82611bad565b611bd88185611bb8565b9350611be8818560208601611856565b80840191505092915050565b6000611c008284611bc3565b915081905092915050565b60008115159050919050565b611c2081611c0b565b8114611c2b57600080fd5b50565b600081519050611c3d81611c17565b92915050565b600060208284031215611c5957611c58611127565b5b6000611c6784828501611c2e565b91505092915050565b7f5472616e7366657248656c7065723a3a7472616e7366657246726f6d3a20747260008201527f616e7366657246726f6d206661696c6564000000000000000000000000000000602082015250565b6000611ccc6031836114f0565b9150611cd782611c70565b604082019050919050565b60006020820190508181036000830152611cfb81611cbf565b9050919050565b600060a082019050611d176000830188611194565b611d246020830187611194565b8181036040830152611d36818661167b565b9050611d456060830185611441565b611d526080830184611194565b9695505050505050565b6000604082019050611d716000830185611441565b611d7e6020830184611194565b9392505050565b7f5472616e7366657248656c7065723a3a73616665417070726f76653a2061707060008201527f726f7665206661696c6564000000000000000000000000000000000000000000602082015250565b6000611de1602b836114f0565b9150611dec82611d85565b604082019050919050565b60006020820190508181036000830152611e1081611dd4565b905091905056fea2646970667358221220ccc4a1fc280a23a1e34b8da24af23ce54c997e7ca291ca6dc9656ef1df8ce71964736f6c63430008120033",
  "linkReferences": {},
  "deployedLinkReferences": {}
}